:100000000C9434000C9451000C9451000C94510049
:100010000C9451000C9451000C9451000C9451001C
:100020000C9451000C9451000C9451000C9451000C
:100030000C9451000C9451000C9451000C945100FC
:100040000C9451000C9451000C944F020C945100EC
:100050000C9451000C9436020C9451000C945100F5
:100060000C9451000C94510011241FBECFEFD8E026
:10007000DEBFCDBF11E0A0E0B1E0E4E2F9E002C0F4
:1000800005900D92AC32B107D9F721E0ACE2B1E0B6
:1000900001C01D92A033B207E1F70E948D010C94BC
:1000A00090040C940000ECE7F0E080818064808391
:1000B00080818F778083808180628083AEE7B0E02B
:1000C0008C9184608C9380818260808380818B7F1F
:1000D0008083EAE7F0E010828081886080838081FD
:1000E000876080838081806880830895ECE7F0E0FA
:1000F00080818064808380818F778083808180622B
:100100008083AEE7B0E08C9180618C9380818460C5
:10011000808380818D7F8083EAE7F0E01082808198
:10012000886080838081876080838081806880830D
:100130000895CF92DF92EF92FF920F931F93CF9388
:10014000DF93C82FD0917900ECE7F0E08081807FC9
:100150008083C23009F059C08081807F8C2B8083DE
:10016000EAE7F0E08081806480836D2F70E080E0BA
:1001700090E00E94880328E431EE4AEF5FE30E949A
:10018000EC030E9457036B017C019B013695279578
:1001900036952795ABE7B4E10E948104AC015695F2
:1001A00047955CE95403900111242C0D3D1DADECE5
:1001B000BCEC0E9481048C01169507951695079555
:1001C00016950795602F660F962F990F990F690F57
:1001D0006195549F600D1124C60E80E3840F0E9428
:1001E00001038EE20E94010380E3800F0E9401035D
:1001F00080E38C0D0E9401032FEF81EE94E02150EB
:1002000080409040E1F700C00000C43009F05CC0BD
:10021000ECE7F0E08081807FC82BC083EAE7F0E064
:100220008081806480836D2F70E080E090E00E9488
:10023000880328E431EE4AEF5FE30E94EC030E945A
:1002400057036B017C019B013695279536952795C1
:10025000ABE7B4E10E948104AC01569547955CE997
:100260005403900111242C0D3D1DADECBCEC0E94FB
:100270008104EC01D695C795D695C795D695C795B7
:100280006C2F660F962F990F990F690F6195549FE8
:10029000600D1124162F1C0D80E3840F0E940103B2
:1002A0008EE20E9401038C2F805D0E94010380E397
:1002B000810F0E9401032FEF81EE94E021508040D6
:1002C0009040E1F700C0000080917A0086FDFCCFED
:1002D0008091780090917900DF91CF911F910F91DB
:1002E000FF90EF90DF90CF900895AC0120E007C021
:1002F0009091C00095FFFCCF3093C6002F5FFA01AC
:10030000E20FF11D30813111F3CF08959091C000BB
:1003100095FFFCCF8093C60008950E943C0378941B
:100320000E9453000E9476000E94B00281E00E9469
:10033000E60286E00E94E60261E080E00E9432036D
:1003400080E091E00E941C0310922E0110922C017B
:10035000EAE7F0E080818064808362E080E00E94D0
:10036000320360912D0182E00E9499002FEF81EE0F
:1003700094E0215080409040E1F700C0000062E02E
:1003800085E00E94320360912D0184E00E94990073
:100390002FEF81EE94E0215080409040E1F700C0C3
:1003A000000062E08BE00E94320380912E01809376
:1003B0002F0180912F018B3219F08D3219F143C03A
:1003C00062E08BE00E94320380912C018F5F80936A
:1003D0002C018EE091E00E9475018BE191E00E947A
:1003E000750180912C01805D0E9486012FEF81EEC6
:1003F00094E0215080409040E1F700C0000010924E
:100400002E0121C062E08BE00E9432038EE191E078
:100410000E9475018BE191E00E94750180912C0191
:10042000805D0E94860180912C01815080932C0177
:100430002FEF81EE94E0215080409040E1F700C022
:10044000000010922E0162E08BE00E943203809146
:100450002C01805D0E9401032FEF81EE94E021507A
:1004600080409040E1F700C0000072CF1F920F92D1
:100470000FB60F9211248F93EF93FF938091790021
:1004800080932D01EAE7F0E0808180618083FF9115
:10049000EF918F910F900FBE0F901F9018951F92A4
:1004A0000F920FB60F9211248F938091C600809304
:1004B0002E018091C00085FFFCCF80912E0180939A
:1004C000C6008F910F900FBE0F901F90189580FF60
:1004D00004C098B1916098B903C098B19E7F98B953
:1004E00081FF04C098B1926098B903C098B19D7F14
:1004F00098B982FF04C09BB194609BB903C09BB1C3
:100500009B7F9BB983FF04C09BB198609BB903C0DC
:100510009BB1977F9BB984FF04C09BB190619BB94D
:1005200003C09BB19F7E9BB985FF04C09BB19062C5
:100530009BB903C09BB19F7D9BB986FF04C09BB153
:1005400090649BB903C09BB19F7B9BB9882324F423
:100550008BB180688BB908958BB18F778BB9089573
:100560008FEF8AB91BB814B884B1816284B915B809
:1005700083E087B918B880E00E9467022FEF89EF07
:1005800090E0215080409040E1F700C0000088E3F7
:100590000E94670225E02A95F1F700008CE00E9496
:1005A000670285E08A95F1F7000086E00E94670205
:1005B00095E09A95F1F7000081E00E9467028FE1D3
:1005C0009EE40197F1F700C00000089595B19E7F69
:1005D00095B90E94670285B1806285B98FE79EE375
:1005E0000197F1F700C0000085B18F7D85B99FEFBD
:1005F00020E782E0915020408040E1F700C00000F9
:10060000089595B1916095B90E94670285B18062A5
:1006100085B98FE79EE30197F1F700C0000085B12F
:100620008F7D85B99FEF20E782E091502040804088
:10063000E1F700C0000008950F931F93CF93DF935D
:100640008C01C0E0D0E003C00E9401032196F801B4
:10065000EC0FFD1F80818111F7CFDF91CF911F91AA
:100660000F910895613021F480580E94E6020895A8
:1006700080540E94E60208958AB182608AB98AB1E4
:100680008E7F8AB91092C000E1ECF0E01082808188
:1006900088698083E2ECF0E010828081866080834C
:1006A00088E090E09093C5008093C40008950E9474
:1006B000CB0388F09F5798F0B92F9927B751B0F026
:1006C000E1F0660F771F881F991F1AF0BA95C9F7D6
:1006D00014C0B13091F00E94E503B1E008950C948C
:1006E000E503672F782F8827B85F39F0B93FCCF33F
:1006F000869577956795B395D9F73EF49095809553
:10070000709561957F4F8F4F9F4F0895E89409C072
:1007100097FB3EF490958095709561957F4F8F4F34
:100720009F4F9923A9F0F92F96E9BB279395F6954A
:10073000879577956795B795F111F8CFFAF4BB0FC8
:1007400011F460FF1BC06F5F7F4F8F4F9F4F16C02C
:10075000882311F096E911C0772321F09EE8872FB6
:10076000762F05C0662371F096E8862F70E060E072
:100770002AF09A95660F771F881FDAF7880F9695EB
:10078000879597F9089557FD9058440F551F59F0D4
:100790005F3F71F04795880F97FB991F61F09F3F6E
:1007A00079F087950895121613061406551FF2CF97
:1007B0004695F1DF08C0161617061806991FF1CFE7
:1007C00086957105610508940895E894BB2766270E
:1007D0007727CB0197F908950E94FF030C947004CA
:1007E0000E94620438F00E94690420F0952311F001
:1007F0000C9459040C945F0411240C94E6030E9499
:10080000C30370F3959FC1F3950F50E0551F629F8E
:10081000F001729FBB27F00DB11D639FAA27F00D59
:10082000B11DAA1F649F6627B00DA11D661F829F80
:100830002227B00DA11D621F739FB00DA11D621F65
:10084000839FA00D611D221F749F3327A00D611D82
:10085000231F849F600D211D822F762F6A2F112464
:100860009F5750409AF0F1F088234AF0EE0FFF1F97
:10087000BB1F661F771F881F91505040A9F79E3FEE
:10088000510580F00C9459040C94E6035F3FE4F3A7
:10089000983ED4F3869577956795B795F795E79544
:1008A0009F5FC1F7FE2B880F911D9695879597F94D
:1008B000089597F99F6780E870E060E008959FEFE2
:1008C00080EC089500240A941616170618060906E7
:1008D000089500240A9412161306140605060895B6
:1008E000092E0394000C11F4882352F0BB0F40F43E
:1008F000BF2B11F460FF04C06F5F7F4F8F4F9F4F7E
:100900000895A29FB001B39FC001A39F700D811DE8
:100910001124911DB29F700D811D1124911D089508
:04092000F894FFCF79
:1009240053313A202053323A202053333A00456E53
:1009340074726F5F615F73756D61000A0D00456EBF
:0C09440074726F5F615F72657374610014
:00000001FF
